{
  "contractName": "ExerciceSolution",
  "abi": [
    {
      "inputs": [],
      "name": "myerc20",
      "outputs": [
        {
          "internalType": "contract MYERC20",
          "name": "",
          "type": "address"
        }
      ],
      "stateMutability": "view",
      "type": "function",
      "constant": true
    },
    {
      "inputs": [],
      "name": "uniswap_v2_router",
      "outputs": [
        {
          "internalType": "contract IUniswapV2Router01",
          "name": "",
          "type": "address"
        }
      ],
      "stateMutability": "view",
      "type": "function",
      "constant": true
    },
    {
      "inputs": [],
      "name": "swapYourTokensForETH",
      "outputs": [],
      "stateMutability": "nonpayable",
      "type": "function"
    }
  ],
  "bytecode": "0x608060405234801561001057600080fd5b50610541806100206000396000f3fe608060405234801561001057600080fd5b50600436106100415760003560e01c806332565029146100465780633f8dd44514610090578063a8863f831461009a575b600080fd5b61004e6100e4565b604051808273ffffffffffffffffffffffffffffffffffffffff1673ffffffffffffffffffffffffffffffffffffffff16815260200191505060405180910390f35b610098610109565b005b6100a26104e5565b604051808273ffffffffffffffffffffffffffffffffffffffff1673ffffffffffffffffffffffffffffffffffffffff16815260200191505060405180910390f35b6000809054906101000a900473ffffffffffffffffffffffffffffffffffffffff1681565b600160009054906101000a900473ffffffffffffffffffffffffffffffffffffffff1673ffffffffffffffffffffffffffffffffffffffff1663095ea7b36000809054906101000a900473ffffffffffffffffffffffffffffffffffffffff16662386f26fc100006040518363ffffffff1660e01b8152600401808373ffffffffffffffffffffffffffffffffffffffff1673ffffffffffffffffffffffffffffffffffffffff16815260200182815260200192505050602060405180830381600087803b1580156101da57600080fd5b505af11580156101ee573d6000803e3d6000fd5b505050506040513d602081101561020457600080fd5b810190808051906020019092919050505050606060026040519080825280602002602001820160405280156102485781602001602082028038833980820191505090505b509050732b1a884dc7a8f0cc17939928895d9d7cb91460748160008151811061026d57fe5b602002602001019073ffffffffffffffffffffffffffffffffffffffff16908173ffffffffffffffffffffffffffffffffffffffff168152505073b4fbf271143f4fbf7b91a5ded31805e42b2208d6816001815181106102c957fe5b602002602001019073ffffffffffffffffffffffffffffffffffffffff16908173ffffffffffffffffffffffffffffffffffffffff16815250506000809054906101000a900473ffffffffffffffffffffffffffffffffffffffff1673ffffffffffffffffffffffffffffffffffffffff166338ed1739662386f26fc10000600a8430426040518663ffffffff1660e01b815260040180868152602001858152602001806020018473ffffffffffffffffffffffffffffffffffffffff1673ffffffffffffffffffffffffffffffffffffffff168152602001838152602001828103825285818151815260200191508051906020019060200280838360005b838110156103e35780820151818401526020810190506103c8565b505050509050019650505050505050600060405180830381600087803b15801561040c57600080fd5b505af1158015610420573d6000803e3d6000fd5b505050506040513d6000823e3d601f19601f82011682018060405250602081101561044a57600080fd5b810190808051604051939291908464010000000082111561046a57600080fd5b8382019150602082018581111561048057600080fd5b825186602082028301116401000000008211171561049d57600080fd5b8083526020830192505050908051906020019060200280838360005b838110156104d45780820151818401526020810190506104b9565b505050509050016040525050505050565b600160009054906101000a900473ffffffffffffffffffffffffffffffffffffffff168156fea26469706673582212209750e24487a7b6749525bf5c0bc55fe8088e585474bc897262d1a669a3bd9cb664736f6c63430006020033",
  "source": "pragma solidity >=0.6.2;\r\nimport \"./utils/IUniswapV2Factory.sol\";\r\nimport \"./utils/IUniswapV2Router.sol\";\r\nimport \"./MyERC20.sol\";\r\nimport \"@openzeppelin/contracts/token/ERC20/ERC20.sol\";\r\n\r\ncontract ExerciceSolution{\r\n\r\n    address private constant UNISWAP_V2_ROUTER = 0x7a250d5630B4cF539739dF2C5dAcb4c659F2488D;\r\n    address private constant WETH = 0xB4FBF271143F4FBf7B91A5ded31805e42b2208d6;\r\n    // address private constant MYERC20 = 0xaD7b3dC82BBf823BD90Ab8A0A6C6e2cD566AcBe3;\r\n    address private constant PAIR = 0xCeD6525a19818992606D8B9003EB2fC538f0A64C;\r\n\r\n    IUniswapV2Router01 public uniswap_v2_router;\r\n    MYERC20 public myerc20;\r\n\r\n    // function swapYourTokenForEth()\r\n    //     address _tokenIn,\r\n    //     address _tokenOut,\r\n    //     uint256 _amountIn,\r\n    //     uint256 _amountOutMin,\r\n    //     address _to\r\n    // )external{\r\n    //     IERC20(_tokenIn).transferFrom(msg.sender, address(this), _amountIn);\r\n    //     IERC20(_tokenIn).approve(UNISWAP_V2_ROUTER, _amountIn);\r\n\r\n    //     address[] memory path;\r\n    //     path = new address[](3);\r\n    //     path[0] = _tokenIn;\r\n    //     path[1] = WETH;\r\n    //     path[2] = _tokenOut;\r\n\r\n    //     IUniswapV2Router01(UNISWAP_V2_ROUTER).swapExactTokensForTokens(\r\n    //         _amountIn, \r\n    //         _amountOutMin, \r\n    //         path, \r\n    //         _to, \r\n    //         block.timestamp);\r\n    // }\r\n\r\n    function swapYourTokensForETH() external {\r\n        myerc20.approve(address(uniswap_v2_router), 0.01 ether);\r\n\r\n        address[] memory path;\r\n        path = new address[](2);\r\n        path[0] = 0x2B1a884Dc7a8f0cc17939928895D9D7cb9146074;\r\n        path[1] = WETH;\r\n\r\n        uniswap_v2_router.swapExactTokensForTokens(\r\n            0.01 ether, \r\n            10 wei, \r\n            path, \r\n            address(this), \r\n            block.timestamp\r\n        );\r\n    }\r\n}",
  "sourcePath": "C:\\Users\\Lucas Kaczmarski\\OneDrive - De Vinci\\Documents\\Esilv\\A4-S8\\Decentralized Finance\\TD2 - AMM-101\\amm-101\\contracts\\ExerciceSolution.sol",
  "compiler": {
    "name": "solc",
    "version": "0.6.2+commit.bacdbe57.Emscripten.clang"
  },
  "schemaVersion": "3.4.11",
  "updatedAt": "2023-01-28T18:33:03.544Z",
  "networkType": "ethereum",
  "devdoc": {
    "methods": {}
  },
  "userdoc": {
    "methods": {}
  }
}